:020000040800F2
:100000000028002065140008F5130008FB13000801
:1000100001140008071400080D1400080000000077
:1000200000000000000000000000000013140008A1
:100030001F140008000000002B14000837140008EB
:10004000AD140008AD140008AD140008AD1400088C
:10005000AD140008AD140008AD140008AD1400087C
:10006000AD140008AD140008AD140008AD1400086C
:10007000AD140008AD140008AD140008AD1400085C
:10008000AD140008AD140008AD140008AD1400084C
:10009000AD140008AD140008AD140008AD1400083C
:1000A000AD140008AD140008AD140008AD1400082C
:1000B00045140008AD14000800000000AD1400084D
:1000C000AD1400080000000000000000AD1400089E
:1000D00000000000AD140008AD140008000000008E
:1000E000AD140008AD140008AD14000800000000B5
:1000F0000000000000000000000000000000000000
:0C01000000000000000000005FF808F1A3
:10010C0010B5054C237833B9044B13B10448AFF345
:10011C0000800123237010BD0C00002000000000A3
:10012C00C82A000808B5034B1BB103490348AFF3B9
:10013C00008008BD0000000010000020C82A000844
:10014C0080B582B000AF78607B68002B23D1002291
:10015C000121C24801F090FC00220221BF4801F0AD
:10016C008BFC00220421BD4801F086FC00220821F2
:10017C00BA4801F081FC00221021B84801F07CFC47
:10018C0000222021B54801F077FC01224021B34820
:10019C0001F072FC5DE17B68012B23D1012201216E
:1001AC00AE4801F069FC00220221AC4801F064FC6D
:1001BC0000220421A94801F05FFC01220821A74874
:1001CC0001F05AFC01221021A44801F055FC012237
:1001DC002021A24801F050FC012240219F4801F04F
:1001EC004BFC36E17B68022B23D1002201219B487A
:1001FC0001F042FC00220221984801F03DFC012252
:10020C000421964801F038FC00220821934801F0A3
:10021C0033FC00221021914801F02EFC01222021F8
:10022C008E4801F029FC002240218C4801F024FC6E
:10023C000FE17B68032B23D100220121874801F0B9
:10024C001BFC00220221854801F016FC002204212F
:10025C00824801F011FC00220821804801F00CFCBE
:10026C00012210217D4801F007FC012220217B484E
:10027C0001F002FC00224021784801F0FDFBE8E08F
:10028C007B68042B23D101220121744801F0F4FB7B
:10029C0000220221714801F0EFFB002204216F487B
:1002AC0001F0EAFB012208216C4801F0E5FB012278
:1002BC0010216A4801F0E0FB00222021674801F080
:1002CC00DBFB00224021654801F0D6FBC1E07B68D6
:1002DC00052B23D100220121604801F0CDFB012226
:1002EC0002215E4801F0C8FB002204215B4801F0AA
:1002FC00C3FB00220821594801F0BEFB012210214A
:10030C00564801F0B9FB00222021544801F0B4FBFF
:10031C0000224021514801F0AFFB9AE07B68062B8C
:10032C0023D1002201214D4801F0A6FB012202211C
:10033C004A4801F0A1FB00220421484801F09CFB33
:10034C0000220821454801F097FB00221021434868
:10035C0001F092FB00222021404801F08DFB00228D
:10036C0040213E4801F088FB73E07B68072B23D1CA
:10037C0000220121394801F07FFB0022022137487D
:10038C0001F07AFB00220421344801F075FB0122B4
:10039C000821324801F070FB012210212F4801F096
:1003AC006BFB012220212D4801F066FB012240212C
:1003BC002A4801F061FB4CE07B68082B23D100221A
:1003CC000121264801F058FB00220221234801F0AC
:1003DC0053FB00220421214801F04EFB002208218E
:1003EC001E4801F049FB002210211C4801F044FB7F
:1003FC0000222021194801F03FFB00224021174820
:10040C0001F03AFB25E07B68092B22D10022012167
:10041C00124801F031FB00220221104801F02CFBA4
:10042C00002204210D4801F027FB002208210B4873
:10043C0001F022FB01221021084801F01DFB0022D3
:10044C002021064801F018FB00224021034801F04E
:10045C0013FB00BF0837BD4680BD00BF000C014038
:10046C0090B583B000AF78606446C7F800C07B6875
:10047C00032B7FD801A252F823F000BF9904000887
:10048C00D30400080D050008470500080022402190
:10049C003A4801F0F1FA01228021384801F0ECFAD7
:1004AC0001224FF48071354801F0E6FA01224FF435
:1004BC000071324801F0E0FA7B6854F8233018469A
:1004CC00FFF73EFE56E0012240212C4801F0D4FA01
:1004DC0000228021294801F0CFFA01224FF48071CB
:1004EC00264801F0C9FA01224FF40071234801F0AB
:1004FC00C3FA7B6854F823301846FFF721FE39E025
:10050C00012240211D4801F0B7FA012280211B482D
:10051C0001F0B2FA00224FF48071184801F0ACFAE5
:10052C0001224FF40071154801F0A6FA7B6854F8CB
:10053C0023301846FFF704FE1CE0012240210F482F
:10054C0001F09AFA012280210C4801F095FA01225F
:10055C004FF48071094801F08FFA00224FF40071BA
:10056C00064801F089FA7B6854F823301846FFF7E7
:10057C00E7FD00BF00BF0C37BD4690BD0008014031
:10058C0080B58EB000AF07F14003FB6100F08AFF2D
:10059C0000F028FD00F0AEFD00F060FD504801F0C9
:1005AC00C9FE00237B633B1D00221A605A609A60CF
:1005BC00DA600F233B630823FB623223BB62494A98
:1005CC0007F1140392E8030083E803000A2000F00B
:1005DC00FDFD0F2000F028FE0F2000F053FE05203B
:1005EC0000F07EFE012240213F4801F045FA012235
:1005FC0080213D4801F040FA01224FF480713A48C5
:10060C0001F03AFA01224FF40071374801F034FA44
:10061C0001221021344801F02FFA08233B620023F9
:10062C007B62324B1B68012B20D1BB6A3B2B04DD58
:10063C000023BB62FB6A0133FB62FB6A3B2B04DDCC
:10064C000023FB623B6B01333B633B6B172B01DDE0
:10065C0000233B63BB6A0133BB623B1D9C46F96ABA
:10066C00386B00F04BF8642000F0B0FD204B1B6899
:10067C00012B10D13B1D9C46786BFFF7F1FE7B6B79
:10068C00022B02DD00237B6302E07B6B01337B6377
:10069C000A2000F0C9FD174B1B68012B0AD1102151
:1006AC00114801F001FA20210F4801F0FDF96420F6
:1006BC0000F0E8FD104B1B68012BB2D17B6A5A1C71
:1006CC007A623A1D9446184600F0BEF87A6A3B6A84
:1006DC009A4201D100237B62022000F001FEA0E7C8
:1006EC0048000020E02A00080008014028000020F3
:1006FC0030000020380000204000002080B485B07D
:10070C0000AFF860B9606246C7F804C0FB681749CF
:10071C0081FB03018910DB17CB1A1360F868134BAC
:10072C0083FB00139910C317C91A0B469B000B448B
:10073C005B00C11A5160BB680C4981FB0301891035
:10074C00DB17CB1A9360B868084B83FB0013991026
:10075C00C317C91A0B469B000B445B00C11AD1602E
:10076C0000BF1437BD4680BC704700BF6766666625
:10077C0080B582B000AFC7F804C001224FF480717D
:10078C002F4801F079F901224FF400712C4801F047
:10079C0073F901224FF48061294801F06DF90122AF
:1007AC004FF40061264801F067F901224FF48051A3
:1007BC00234801F061F901224FF40051204801F067
:1007CC005BF901224FF480411D4801F055F90122DB
:1007DC004FF400411A4801F04FF901220421194845
:1007EC0001F04AF901220821164801F045F90122CD
:1007FC004FF48061134801F03FF901224FF400617E
:10080C00104801F039F901224FF480510D4801F0E4
:10081C0033F901224FF400510A4801F02DF901225D
:10082C004FF48041074801F027F901224FF40041B1
:10083C00044801F021F900BF0837BD4680BD00BF58
:10084C00000C01400008014090B583B000AF786007
:10085C006446C7F800C0A446FFF78AFF7B68072BE5
:10086C0000F2B68301A252F823F000BF99080008E9
:10087C007F090008650A0008550B00083B0C0008AE
:10088C00210D0008110E0008F70E000800224FF48D
:10089C008071AB4801F0F0F8237C03F00103002BCE
:1008AC000CBF01230023DBB21A460421A54801F03A
:1008BC00E3F8237C03F00203002B0CBF012300237D
:1008CC00DBB21A4608219F4801F0D6F8237C03F0CE
:1008DC000403002B0CBF01230023DBB21A464FF498
:1008EC008061984801F0C8F8237C03F00803002BC2
:1008FC000CBF01230023DBB21A464FF40061914870
:10090C0001F0BAF8237C03F01003002B0CBF012379
:10091C000023DBB21A464FF480518A4801F0ACF840
:10092C00237C03F02003002B0CBF01230023DBB23C
:10093C001A464FF40051834801F09EF8237C03F0D3
:10094C004003002B0CBF01230023DBB21A464FF4EB
:10095C0080417C4801F090F8237C5BB2DB43DBB236
:10096C00DB09DBB21A464FF40041764801F084F8FB
:10097C002FE300224FF40071714801F07DF8637C85
:10098C0003F00103002B0CBF01230023DBB21A463A
:10099C0004216C4801F070F8637C03F00203002B17
:1009AC000CBF01230023DBB21A460821654801F075
:1009BC0063F8637C03F00403002B0CBF01230023BA
:1009CC00DBB21A464FF480615E4801F055F8637C47
:1009DC0003F00803002B0CBF01230023DBB21A46E3
:1009EC004FF40061574801F047F8637C03F01003A3
:1009FC00002B0CBF01230023DBB21A464FF48051AD
:100A0C00504801F039F8637C03F02003002B0CBF35
:100A1C0001230023DBB21A464FF40051494801F080
:100A2C002BF8637C03F04003002B0CBF0123002345
:100A3C00DBB21A464FF48041424801F01DF8637C4A
:100A4C005BB2DB43DBB2DB09DBB21A464FF400418D
:100A5C003C4801F011F8BCE200224FF480613848A8
:100A6C0001F00AF8A37C03F00103002B0CBF012357
:100A7C000023DBB21A460421324800F0FDFFA37CB0
:100A8C0003F00203002B0CBF01230023DBB21A4638
:100A9C0008212C4800F0F0FFA37C03F00403002B8A
:100AAC000CBF01230023DBB21A464FF480612548AA
:100ABC0000F0E2FFA37C03F00803002B0CBF012322
:100ACC000023DBB21A464FF400611E4800F0D4FF3D
:100ADC00A37C03F01003002B0CBF01230023DBB21B
:100AEC001A464FF48051174800F0C6FFA37C03F060
:100AFC002003002B0CBF01230023DBB21A464FF45A
:100B0C000051104800F0B8FFA37C03F04003002B09
:100B1C000CBF01230023DBB21A464FF48041094875
:100B2C0000F0AAFFA37C5BB2DB43DBB2DB09DBB2D8
:100B3C001A464FF40041034800F09EFF49E200BF03
:100B4C00000C01400008014000224FF40061AB484A
:100B5C0000F092FFE37C03F00103002B0CBF012398
:100B6C000023DBB21A460421A54800F085FFE37C84
:100B7C0003F00203002B0CBF01230023DBB21A4647
:100B8C0008219F4800F078FFE37C03F00403002B5E
:100B9C000CBF01230023DBB21A464FF48061984846
:100BAC0000F06AFFE37C03F00803002B0CBF012369
:100BBC000023DBB21A464FF40061914800F05CFF51
:100BCC00E37C03F01003002B0CBF01230023DBB2EA
:100BDC001A464FF480518A4800F04EFFE37C03F034
:100BEC002003002B0CBF01230023DBB21A464FF469
:100BFC000051834800F040FFE37C03F04003002BDE
:100C0C000CBF01230023DBB21A464FF480417C4811
:100C1C0000F032FFE37C5BB2DB43DBB2DB09DBB21F
:100C2C001A464FF40041764800F026FFD1E100222D
:100C3C004FF48051714800F01FFF237D03F0010336
:100C4C00002B0CBF01230023DBB21A4604216C4895
:100C5C0000F012FF237D03F00203002B0CBF0123D5
:100C6C000023DBB21A460821654800F005FF237DFE
:100C7C0003F00403002B0CBF01230023DBB21A4644
:100C8C004FF480615E4800F0F7FE237D03F008030B
:100C9C00002B0CBF01230023DBB21A464FF400617A
:100CAC00574800F0E9FE237D03F01003002B0CBF26
:100CBC0001230023DBB21A464FF48051504800F058
:100CCC00DBFE237D03F02003002B0CBF012300234C
:100CDC00DBB21A464FF40051494800F0CDFE237D9B
:100CEC0003F04003002B0CBF01230023DBB21A4698
:100CFC004FF48041424800F0BFFE237D5BB2DB43E2
:100D0C00DBB2DB09DBB21A464FF400413C4800F081
:100D1C00B3FE5EE100224FF40051384800F0ACFE07
:100D2C00637D03F00103002B0CBF01230023DBB216
:100D3C001A460421324800F09FFE637D03F0020343
:100D4C00002B0CBF01230023DBB21A4608212C48D0
:100D5C0000F092FE637D03F00403002B0CBF012313
:100D6C000023DBB21A464FF48061254800F084FE64
:100D7C00637D03F00803002B0CBF01230023DBB2BF
:100D8C001A464FF400611E4800F076FE637D03F0B6
:100D9C001003002B0CBF01230023DBB21A464FF4C7
:100DAC008051174800F068FE637D03F02003002B90
:100DBC000CBF01230023DBB21A464FF4005110483C
:100DCC0000F05AFE637D03F04003002B0CBF01239F
:100DDC000023DBB21A464FF48041094800F04CFE68
:100DEC00637D5BB2DB43DBB2DB09DBB21A464FF44B
:100DFC000041034800F040FEEBE000BF000C014056
:100E0C000008014000224FF48041744800F034FE89
:100E1C00A37D03F00103002B0CBF01230023DBB2E5
:100E2C001A4604216E4800F027FEA37D03F002034E
:100E3C00002B0CBF01230023DBB21A4608216848A3
:100E4C0000F01AFEA37D03F00403002B0CBF01235A
:100E5C000023DBB21A464FF48061614800F00CFEAF
:100E6C00A37D03F00803002B0CBF01230023DBB28E
:100E7C001A464FF400615A4800F0FEFDA37D03F0C2
:100E8C001003002B0CBF01230023DBB21A464FF4D6
:100E9C008051534800F0F0FDA37D03F02003002B9C
:100EAC000CBF01230023DBB21A464FF400514C480F
:100EBC0000F0E2FDA37D03F04003002B0CBF0123E7
:100ECC000023DBB21A464FF48041454800F0D4FDB4
:100EDC00A37D5BB2DB43DBB2DB09DBB21A464FF41A
:100EEC0000413F4800F0C8FD73E000224FF4004180
:100EFC003A4800F0C1FDE37D03F00103002B0CBF69
:100F0C0001230023DBB21A460421354800F0B4FD5E
:100F1C00E37D03F00203002B0CBF01230023DBB2A3
:100F2C001A4608212E4800F0A7FDE37D03F00403C8
:100F3C00002B0CBF01230023DBB21A464FF4806157
:100F4C00274800F099FDE37D03F00803002B0CBF4C
:100F5C0001230023DBB21A464FF40061204800F055
:100F6C008BFDE37D03F01003002B0CBF012300234A
:100F7C00DBB21A464FF48051194800F07DFDE37D39
:100F8C0003F02003002B0CBF01230023DBB21A4615
:100F9C004FF40051124800F06FFDE37D03F0400365
:100FAC00002B0CBF01230023DBB21A464FF4804107
:100FBC000B4800F061FDE37D5BB2DB43DBB2DB0988
:100FCC00DBB21A464FF40041054800F055FD00E035
:100FDC0000BF00BF0C37BD4690BD00BF000C0140E8
:100FEC000008014080B590B000AF07F1180328222B
:100FFC000021184601F05AFD3B1D00221A605A6070
:10100C009A60DA601A610223BB610123BB62102370
:10101C00FB6200237B6307F11803184600F05EFDAA
:10102C000346002B01D000F0CBF80F237B6000238C
:10103C00BB600023FB6000233B6100237B613B1DF5
:10104C000021184600F0CAFF0346002B01D000F027
:10105C00B7F800BF4037BD4680BD000080B586B0F4
:10106C0000AF07F1080300221A605A609A60DA6038
:10107C003B4600221A605A601D4B4FF080421A60AA
:10108C001B4B41F63F725A60194B00229A60184B69
:10109C000922DA60164B00221A61154B00229A6164
:1010AC00134801F0F7F80346002B01D000F088F844
:1010BC004FF48053BB6007F1080319460C4801F04C
:1010CC008DFA0346002B01D000F07AF800233B6028
:1010DC0000237B603B461946054801F059FC03464A
:1010EC00002B01D000F06CF800BF1837BD4680BD56
:1010FC004800002080B586B000AF07F1080300223D
:10110C001A605A609A60DA60224B9B69214A43F05C
:10111C00040393611F4B9B6903F004037B607B68A2
:10112C001C4B9B691B4A43F008039361194B9B6949
:10113C0003F008033B603B6800224FF6FC71164835
:10114C0000F09AFC00224FF67F71144800F094FCDA
:10115C004FF6FC73BB600123FB6000233B61022351
:10116C007B6107F1080319460B4800F00BFB4FF6A7
:10117C007F73BB600123FB6000233B6102237B6117
:10118C0007F108031946054800F0FCFA00BF1837B0
:10119C00BD4680BD0010024000080140000C01401B
:1011AC0080B582B000AF786000F024F800F050F801
:1011BC0000F07CF800F0A8F800BF0837BD4680BDF1
:1011CC0080B400AF72B600BFFEE7000080B483B0FD
:1011DC0000AF7860054A7B681360054B00221A60EB
:1011EC0000BF0C37BD4680BC704700BF2C000020F0
:1011FC002800002080B400AF094B1B68002B0BDBD0
:10120C00074B1B68013B064A1360054B1B68002B00
:10121C0002D1044B01221A6000BFBD4680BC70474E
:10122C002C0000202800002080B483B000AF786030
:10123C00054A7B681360054B00221A6000BF0C370F
:10124C00BD4680BC704700BF340000203000002039
:10125C0080B400AF094B1B68002B0BDB074B1B68E2
:10126C00013B064A1360054B1B68002B02D1044B53
:10127C0001221A6000BFBD4680BC704734000020BC
:10128C003000002080B483B000AF7860054A7B68E2
:10129C001360054B00221A6000BF0C37BD4680BCA2
:1012AC00704700BF3C0000203800002080B400AF25
:1012BC00094B1B68002B0BDB074B1B68013B064AD9
:1012CC001360054B1B68002B02D1044B01221A60E2
:1012DC0000BFBD4680BC70473C0000203800002099
:1012EC0080B483B000AF7860054A7B681360054B0F
:1012FC0000221A6000BF0C37BD4680BC704700BF8F
:10130C00440000204000002080B400AF094B1B6853
:10131C00002B0BDB074B1B68013B064A1360054B8C
:10132C001B68002B02D1044B01221A6000BFBD4682
:10133C0080BC7047440000204000002080B485B081
:10134C0000AF154B9B69144A43F001039361124B98
:10135C009B6903F00103BB60BB680F4BDB690E4A52
:10136C0043F08053D3610C4BDB6903F080537B60FB
:10137C007B680A4B5B68FB60FB6823F0E063FB60F7
:10138C00FB6843F08063FB60044AFB68536000BF5A
:10139C001437BD4680BC704700100240000001406D
:1013AC0080B584B000AF78607B681B68B3F1804F68
:1013BC0013D10C4BDB690B4A43F00103D361094B8E
:1013CC00DB6903F00103FB60FB68002200211C2099
:1013DC0000F0A1F91C2000F0BAF900BF1037BD468F
:1013EC0080BD00BF0010024080B400AFFEE780B4A7
:1013FC0000AFFEE780B400AFFEE780B400AFFEE7BD
:10140C0080B400AFFEE780B400AF00BFBD4680BC27
:10141C00704780B400AF00BFBD4680BC704780B43D
:10142C0000AF00BFBD4680BC704780B500AF00F078
:10143C007FF800BF80BD000080B500AF024800F00F
:10144C00C5FF00BF80BD00BF4800002080B400AFC6
:10145C0000BFBD4680BC7047FFF7F8FF0B480C4936
:10146C000C4A002302E0D458C4500433C4188C42F4
:10147C00F9D3094A094C002301E013600432A2425B
:10148C00FBD301F0EFFAFFF77BF870470000002068
:10149C000C000020142B00080C00002094000020ED
:1014AC00FEE7000080B500AF084B1B68074A43F00D
:1014BC0010031360032000F023F90F2000F008F84C
:1014CC00FFF73CFF0023184680BD00BF0020024000
:1014DC0080B582B000AF7860124B1A68124B1B7843
:1014EC0019464FF47A73B3FBF1F3B2FBF3F31846DE
:1014FC0000F03BF90346002B01D001230EE07B6882
:10150C000F2B0AD8002279684FF0FF3000F003F956
:10151C00064A7B681360002300E001231846083755
:10152C00BD4680BD00000020080000200400002003
:10153C0080B400AF054B1B781A46054B1B6813444F
:10154C00034A136000BFBD4680BC704708000020F2
:10155C009000002080B400AF024B1B681846BD46BB
:10156C0080BC70479000002080B485B000AF7860DC
:10157C007B6803F00703FB600C4BDB68BB60BA684D
:10158C004FF6FF031340BB60FB681A02BB681343A2
:10159C0043F0BF6343F40033BB60044ABB68D360C1
:1015AC0000BF1437BD4680BC704700BF00ED00E0A3
:1015BC0080B400AF044BDB681B0A03F0070318462A
:1015CC00BD4680BC704700BF00ED00E080B483B026
:1015DC0000AF0346FB7197F90730002B0BDBFB794F
:1015EC0003F01F02064997F907305B09012000FA46
:1015FC0002F241F8232000BF0C37BD4680BC704777
:10160C0000E100E080B483B000AF03463960FB71A9
:10161C0097F90730002B0ADB3B68DAB20C4997F9D3
:10162C0007301201D2B20B4483F800230AE03B6866
:10163C00DAB20849FB7903F00F03043B1201D2B272
:10164C000B441A7600BF0C37BD4680BC704700BFF8
:10165C0000E100E000ED00E080B489B000AFF8607C
:10166C00B9607A60FB6803F00703FB61FB69C3F1A7
:10167C000703042B28BF0423BB61FB690433062B2F
:10168C0002D9FB69033B00E000237B614FF0FF3282
:10169C00BB6902FA03F3DA43BB681A407B699A40D0
:1016AC004FF0FF317B6901FA03F3D9437B680B40A0
:1016BC00134318462437BD4680BC704780B582B0B2
:1016CC0000AF78607B68013BB3F1807F01D30123CD
:1016DC000FE00A4A7B68013B53600F214FF0FF304B
:1016EC00FFF790FF054B00229A60044B07221A600B
:1016FC00002318460837BD4680BD00BF10E000E04F
:10170C0080B582B000AF78607868FFF72DFF00BF1E
:10171C000837BD4680BD80B586B000AF0346B960C2
:10172C007A60FB7300237B61FFF742FF78617A6874
:10173C00B9687869FFF790FF024697F90F301146A8
:10174C001846FFF75FFF00BF1837BD4680BD80B558
:10175C0082B000AF0346FB7197F907301846FFF7CC
:10176C0035FF00BF0837BD4680BD80B582B000AFE5
:10177C0078607868FFF7A2FF034618460837BD4625
:10178C0080BD000080B48BB000AF7860396000235E
:10179C007B6200233B6248E101227B6A02FA03F37D
:1017AC00FB613B681B68FA691340BB61BA69FB6952
:1017BC009A4240F037813B685B68A34A93425ED003
:1017CC00A14A934275D8A14A934258D09F4A93425A
:1017DC006FD89F4A934252D09D4A934269D89D4AF2
:1017EC0093424CD09B4A934263D89B4A934246D037
:1017FC00994A93425DD8122B2AD8122B59D801A2A0
:10180C0052F823F08B1800086518000877180008A8
:10181C00B9180008BF180008BF180008BF18000846
:10182C00BF180008BF180008BF180008BF18000830
:10183C00BF180008BF180008BF180008BF18000820
:10184C00BF180008BF1800086D18000881180008A0
:10185C00824A934213D02CE03B68DB683B6229E060
:10186C003B68DB6804333B6224E03B68DB6808338D
:10187C003B621FE03B68DB680C333B621AE03B6861
:10188C009B68002B02D104233B6213E03B689B68EE
:10189C00012B05D108233B627B68FA691A6109E0C8
:1018AC0008233B627B68FA695A6103E000233B62C0
:1018BC0000E000BFBB69FF2B01D87B6801E07B68AF
:1018CC0004337B61BB69FF2B02D87B6A9B0002E06F
:1018DC007B6A083B9B003B617B691A680F213B6963
:1018EC0001FA03F3DB431A40396A3B6901FA03F34B
:1018FC001A437B691A603B685B6803F08053002BCA
:10190C0000F09080564B9B69554A43F0010393615C
:10191C00534B9B6903F00103BB60BB68514A7B6A64
:10192C009B08023352F82330FB607B6A03F00303FD
:10193C009B000F2202FA03F3DB43FA681340FB60AF
:10194C007B68494A93420DD07B68484A934207D042
:10195C007B68474A934201D1022304E0032302E04F
:10196C00012300E000237A6A02F003029200934004
:10197C00FA681343FB603B497B6A9B080233FA68A5
:10198C0041F823203B685B6803F48013002B06D0DE
:10199C00384B9A683749BB6913438B6006E0354B6B
:1019AC009A68BB69DB43334913408B603B685B68C7
:1019BC0003F40013002B06D02E4BDA682D49BB69BB
:1019CC001343CB6006E02B4BDA68BB69DB43294938
:1019DC001340CB603B685B6803F40033002B06D0EC
:1019EC00244B5A682349BB6913434B6006E0214BD7
:1019FC005A68BB69DB431F4913404B603B685B680B
:101A0C0003F48033002B06D01A4B1A681949BB69B2
:101A1C0013430B6006E0174B1A68BB69DB4315498F
:101A2C0013400B607B6A01337B623B681A687B6AEC
:101A3C0022FA03F3002B7FF4AFAE00BF00BF2C37AC
:101A4C00BD4680BC704700BF000032100000311052
:101A5C0000002210000021100000121000001110D4
:101A6C00001002400000014000080140000C014041
:101A7C00001001400004014080B483B000AF7860D6
:101A8C000B467B8013467B707B78002B03D07A88C7
:101A9C007B681A6103E07B881A047B681A6100BFBB
:101AAC000C37BD4680BC704780B485B000AF786001
:101ABC000B467B807B68DB68FB607A88FB68134095
:101ACC001A04FB68D9437B880B401A437B681A6164
:101ADC0000BF1437BD4680BC7047000080B586B08F
:101AEC0000AF78607B68002B01D101236CE27B682E
:101AFC001B6803F00103002B00F08780924B5B689E
:101B0C0003F00C03042B0CD08F4B5B6803F00C031D
:101B1C00082B12D18C4B5B6803F48033B3F5803FF8
:101B2C000BD1894B1B6803F40033002B6CD07B6802
:101B3C005B68002B68D1012346E27B685B68B3F5D8
:101B4C00803F06D1804B1B687F4A43F4803313607F
:101B5C002EE07B685B68002B0CD17B4B1B687A4AB0
:101B6C0023F480331360784B1B68774A23F480236B
:101B7C0013601DE07B685B68B3F5A02F0CD1724B32
:101B8C001B68714A43F4802313606F4B1B686E4AC9
:101B9C0043F4803313600BE06B4B1B686A4A23F4ED
:101BAC0080331360684B1B68674A23F480231360EF
:101BBC007B685B68002B13D0FFF7CCFC386108E026
:101BCC00FFF7C8FC02463B69D31A642B01D90323E7
:101BDC00FAE15D4B1B6803F40033002BF0D014E0EA
:101BEC00FFF7B8FC386108E0FFF7B4FC02463B692C
:101BFC00D31A642B01D90323E6E1534B1B6803F47E
:101C0C000033002BF0D100E000BF7B681B6803F0B1
:101C1C000203002B63D04C4B5B6803F00C03002BCE
:101C2C000BD0494B5B6803F00C03082B1CD1464BC3
:101C3C005B6803F48033002B16D1434B1B6803F015
:101C4C000203002B05D07B681B69012B01D00123FB
:101C5C00BAE13D4B1B6823F0F8027B685B69DB0043
:101C6C00394913430B603AE07B681B69002B20D089
:101C7C00364B01221A60FFF76DFC386108E0FFF764
:101C8C0069FC02463B69D31A022B01D903239BE161
:101C9C002D4B1B6803F00203002BF0D02A4B1B6862
:101CAC0023F0F8027B685B69DB00274913430B6068
:101CBC0015E0264B00221A60FFF74CFC386108E057
:101CCC00FFF748FC02463B69D31A022B01D90323C8
:101CDC007AE11D4B1B6803F00203002BF0D17B68EB
:101CEC001B6803F00803002B3AD07B689B69002B20
:101CFC0019D0174B01221A60FFF72CFC386108E051
:101D0C00FFF728FC02463B69D31A022B01D90323A7
:101D1C005AE10D4B5B6A03F00203002BF0D001205B
:101D2C0000F09AFA1CE00A4B00221A60FFF712FC32
:101D3C0038610FE0FFF70EFC02463B69D31A022B09
:101D4C0008D9032340E100BF0010024000004242CA
:101D5C00800442429E4B5B6A03F00203002BE9D1E4
:101D6C007B681B6803F00403002B00F0A6800023A3
:101D7C00FB75974BDB6903F08053002B0DD1944B13
:101D8C00DB69934A43F08053D361914BDB6903F0D9
:101D9C008053BB60BB680123FB758E4B1B6803F43F
:101DAC008073002B18D18B4B1B688A4A43F48073C9
:101DBC001360FFF7CFFB386108E0FFF7CBFB02465F
:101DCC003B69D31A642B01D90323FDE0814B1B68BB
:101DDC0003F48073002BF0D07B68DB68012B06D1F9
:101DEC007B4B1B6A7A4A43F0010313622DE07B683C
:101DFC00DB68002B0CD1764B1B6A754A23F0010370
:101E0C001362734B1B6A724A23F0040313621CE0C7
:101E1C007B68DB68052B0CD16D4B1B6A6C4A43F05D
:101E2C00040313626A4B1B6A694A43F00103136291
:101E3C000BE0674B1B6A664A23F001031362644B89
:101E4C001B6A634A23F0040313627B68DB68002B74
:101E5C0015D0FFF77FFB38610AE0FFF77BFB0246EA
:101E6C003B69D31A41F28832934201D90323ABE088
:101E7C00574B1B6A03F00203002BEED014E0FFF764
:101E8C0069FB38610AE0FFF765FB02463B69D31A30
:101E9C0041F28832934201D9032395E04C4B1B6AE3
:101EAC0003F00203002BEED1FB7D012B05D1484B37
:101EBC00DB69474A23F08053D3617B68DB69002BD5
:101ECC0000F08180424B5B6803F00C03082B61D05F
:101EDC007B68DB69022B46D13F4B00221A60FFF76F
:101EEC0039FB386108E0FFF735FB02463B69D31A32
:101EFC00022B01D9032367E0354B1B6803F00073F9
:101F0C00002BF0D17B681B6AB3F5803F08D1304BB6
:101F1C005B6823F400327B689B682D4913434B604C
:101F2C002B4B5B6823F474127B68196A7B685B6AC1
:101F3C000B43274913434B60274B01221A60FFF7D1
:101F4C0009FB386108E0FFF705FB02463B69D31A31
:101F5C00022B01D9032337E01D4B1B6803F00073E0
:101F6C00002BF0D02FE01C4B00221A60FFF7F2FA86
:101F7C00386108E0FFF7EEFA02463B69D31A022BF0
:101F8C0001D9032320E0124B1B6803F00073002BD4
:101F9C00F0D118E07B68DB69012B01D1012313E040
:101FAC000B4B5B68FB60FB6803F480327B681B6A3D
:101FBC009A4206D1FB6803F470127B685B6A9A4202
:101FCC0001D0012300E0002318461837BD4680BD20
:101FDC0000100240007000406000424280B584B0A6
:101FEC0000AF786039607B68002B01D10123D0E011
:101FFC006A4B1B6803F007033A689A4210D9674B87
:10200C001B6823F0070265493B6813430B60634B65
:10201C001B6803F007033A689A4201D00123B8E029
:10202C007B681B6803F00203002B20D07B681B68C5
:10203C0003F00403002B05D0594B5B68584A43F45A
:10204C00E06353607B681B6803F00803002B05D02A
:10205C00534B5B68524A43F460535360504B5B687C
:10206C0023F0F0027B689B684D4913434B607B68FF
:10207C001B6803F00103002B40D07B685B68012BCD
:10208C0007D1474B1B6803F40033002B15D10123F8
:10209C007FE07B685B68022B07D1414B1B6803F028
:1020AC000073002B09D1012373E03D4B1B6803F037
:1020BC000203002B01D101236BE0394B5B6823F049
:1020CC0003027B685B68364913434B60FFF742FAA7
:1020DC00F8600AE0FFF73EFA0246FB68D31A41F2B9
:1020EC008832934201D9032353E02D4B5B6803F0F4
:1020FC000C027B685B689B009A42EBD1274B1B68F8
:10210C0003F007033A689A4210D2244B1B6823F061
:10211C00070222493B6813430B60204B1B6803F0FA
:10212C0007033A689A4201D0012332E07B681B68AE
:10213C0003F00403002B08D0194B5B6823F4E06216
:10214C007B68DB68164913434B607B681B6803F0A4
:10215C000803002B09D0124B5B6823F460527B6898
:10216C001B69DB000E4913434B6000F021F802465B
:10217C000B4B5B681B0903F00F030A49CB5C22FA7B
:10218C0003F3094A1360094B1B681846FFF7A0F9C3
:10219C00002318461037BD4680BD00BF002002400A
:1021AC0000100240E82A0008000000200400002073
:1021BC0080B487B000AF0023FB600023BB6000231A
:1021CC007B6100237B6000233B611E4B5B68FB60E3
:1021DC00FB6803F00C03042B02D0082B03D027E080
:1021EC00194B3B6127E0FB689B0C03F00F03174A6C
:1021FC00D35C7B60FB6803F48033002B10D0114B55
:10220C005B685B0C03F00103114AD35CBB607B6819
:10221C000D4A02FB03F2BB68B2FBF3F37B6104E0F3
:10222C007B680C4A02FB03F37B617B693B6102E038
:10223C00054B3B6100BF3B6918461C37BD4680BC53
:10224C00704700BF0010024000127A00F82A000804
:10225C00082B000800093D0080B485B000AF786001
:10226C000A4B1B680A4AA2FB03235B0A7A6802FB2F
:10227C0003F3FB6000BFFB685A1EFA60002BF9D118
:10228C0000BF00BF1437BD4680BC70470000002063
:10229C00D34D621080B582B000AF78607B68002BA4
:1022AC0001D1012341E07B6893F83D30DBB2002B78
:1022BC0006D17B68002283F83C207868FFF770F821
:1022CC007B68022283F83D207B681A687B680433A4
:1022DC001946104600F06EFA7B68012283F84620FE
:1022EC007B68012283F83E207B68012283F83F2023
:1022FC007B68012283F840207B68012283F841200F
:10230C007B68012283F842207B68012283F84320FA
:10231C007B68012283F844207B68012283F84520E6
:10232C007B68012283F83D20002318460837BD4600
:10233C0080BD000080B485B000AF78607B6893F8F6
:10234C003D30DBB2012B01D0012335E07B6802224A
:10235C0083F83D207B681B68DA687B681B6842F059
:10236C000102DA607B681B68164A934209D07B68CD
:10237C001B68B3F1804F04D07B681B68124A9342F0
:10238C0011D17B681B689B6803F00703FB60FB683B
:10239C00062B10D07B681B681A687B681B6842F0A0
:1023AC0001021A6007E07B681B681A687B681B686F
:1023BC0042F001021A60002318461437BD4680BC57
:1023CC00704700BF002C01400004004080B582B073
:1023DC0000AF78607B681B681B6903F00203022B5B
:1023EC0022D17B681B68DB6803F00203022B1BD134
:1023FC007B681B686FF002021A617B6801221A77F6
:10240C007B681B689B6903F00303002B03D078687F
:10241C0000F0B4F905E0786800F0A7F9786800F0EE
:10242C00B6F97B6800221A777B681B681B6903F07E
:10243C000403042B22D17B681B68DB6803F00403C4
:10244C00042B1BD17B681B686FF004021A617B683C
:10245C0002221A777B681B689B6903F44073002B7C
:10246C0003D0786800F08AF905E0786800F07DF90F
:10247C00786800F08CF97B6800221A777B681B68FF
:10248C001B6903F00803082B22D17B681B68DB68EF
:10249C0003F00803082B1BD17B681B686FF0080244
:1024AC001A617B6804221A777B681B68DB6903F06E
:1024BC000303002B03D0786800F060F905E078681E
:1024CC0000F053F9786800F062F97B6800221A7703
:1024DC007B681B681B6903F01003102B22D17B68EF
:1024EC001B68DB6803F01003102B1BD17B681B6887
:1024FC006FF010021A617B6808221A777B681B68E0
:10250C00DB6903F44073002B03D0786800F036F9D4
:10251C0005E0786800F029F9786800F038F97B68F4
:10252C0000221A777B681B681B6903F00103012BDF
:10253C000ED17B681B68DB6803F00103012B07D10C
:10254C007B681B686FF001021A617868FEF728FE41
:10255C007B681B681B6903F08003802B0ED17B68A2
:10256C001B68DB6803F08003802B07D17B681B683A
:10257C006FF080021A61786800F06BFA7B681B6858
:10258C001B6903F04003402B0ED17B681B68DB6892
:10259C0003F04003402B07D17B681B686FF04002AF
:1025AC001A61786800F0FCF87B681B681B6903F003
:1025BC002003202B0ED17B681B68DB6803F0200303
:1025CC00202B07D17B681B686FF020021A6178689A
:1025DC0000F036FA00BF0837BD4680BD80B584B028
:1025EC0000AF786039600023FB737B6893F83C3054
:1025FC00012B01D10223B4E07B68012283F83C203B
:10260C007B68022283F83D207B681B689B68BB605B
:10261C00BB6823F07703BB60BB6823F47F43BB60CC
:10262C007B681B68BA689A603B681B68B3F5005FEF
:10263C003ED0B3F5005F00F28780B3F5805F00F009
:10264C008680B3F5805F7FD8702B1AD0702B7BD827
:10265C00602B50D0602B77D8502B3CD0502B73D89C
:10266C00402B58D0402B6FD8302B64D0302B6BD8EC
:10267C00202B60D0202B67D8002B5CD0102B5AD08D
:10268C0062E07B6818683B6899683B685A683B68ED
:10269C00DB6800F05EF97B681B689B68BB60BB68FD
:1026AC0043F07703BB607B681B68BA689A604FE0A5
:1026BC007B6818683B6899683B685A683B68DB68BC
:1026CC0000F047F97B681B689A687B681B6842F4CA
:1026DC0080429A603CE07B6818683B6859683B68AC
:1026EC00DB681A4600F0BEF87B681B685021184660
:1026FC0000F015F92CE07B6818683B6859683B685A
:10270C00DB681A4600F0DCF87B681B686021184611
:10271C0000F005F91CE07B6818683B6859683B6859
:10272C00DB681A4600F09EF87B681B68402118464F
:10273C0000F0F5F80CE07B681A683B681B681946DA
:10274C00104600F0ECF803E00123FB7300E000BF3F
:10275C007B68012283F83D207B68002283F83C20B3
:10276C00FB7B18461037BD4680BD80B483B000AFEC
:10277C00786000BF0C37BD4680BC704780B483B016
:10278C0000AF786000BF0C37BD4680BC704780B48A
:10279C0083B000AF786000BF0C37BD4680BC70477B
:1027AC0080B483B000AF786000BF0C37BD4680BCEE
:1027BC007047000080B485B000AF786039607B68EA
:1027CC001B68FB607B68254A934207D07B68B3F19A
:1027DC00804F03D07B68224A934208D1FB6823F0D8
:1027EC007003FB603B685B68FA681343FB607B68B3
:1027FC001A4A934207D07B68B3F1804F03D07B68B1
:10280C00174A934208D1FB6823F44073FB603B6882
:10281C00DB68FA681343FB60FB6823F080023B68BB
:10282C005B691343FB607B68FA681A603B689A68C3
:10283C007B68DA623B681A687B689A627B68074A35
:10284C00934203D13B681A697B681A637B68012247
:10285C005A6100BF1437BD4680BC7047002C014044
:10286C000004004080B487B000AFF860B9607A60B3
:10287C00FB681B6A7B61FB681B6A23F00102FB6827
:10288C001A62FB689B693B613B6923F0F0033B6177
:10289C007B681B013A6913433B617B6923F00A0394
:1028AC007B617A69BB6813437B61FB683A699A6107
:1028BC00FB687A691A6200BF1C37BD4680BC704742
:1028CC0080B487B000AFF860B9607A60FB681B6AAF
:1028DC007B61FB681B6A23F01002FB681A62FB68C1
:1028EC009B693B613B6923F470433B617B681B0331
:1028FC003A6913433B617B6923F0A0037B61BB689E
:10290C001B017A6913437B61FB683A699A61FB6826
:10291C007A691A6200BF1C37BD4680BC704780B410
:10292C0085B000AF786039607B689B68FB60FB68A2
:10293C0023F07003FB603A68FB68134343F0070312
:10294C00FB607B68FA689A6000BF1437BD4680BC98
:10295C00704780B487B000AFF860B9607A603B60B4
:10296C00FB689B687B617B6923F47F437B613B68DD
:10297C001A027B681A43BB6813437A6913437B6161
:10298C00FB687A699A6000BF1C37BD4680BC7047F3
:10299C0080B485B000AF786039607B6893F83C30C8
:1029AC00012B01D1022341E07B68012283F83C20FA
:1029BC007B68022283F83D207B681B685B68FB60A8
:1029CC007B681B689B68BB60FB6823F07003FB6033
:1029DC003B681B68FA681343FB607B681B68FA68EA
:1029EC005A607B681B68144A934209D07B681B6849
:1029FC00B3F1804F04D07B681B68104A93420CD112
:102A0C00BB6823F08003BB603B685B68BA68134308
:102A1C00BB607B681B68BA689A607B68012283F88C
:102A2C003D207B68002283F83C2000231846143795
:102A3C00BD4680BC704700BF002C01400004004024
:102A4C0080B483B000AF786000BF0C37BD4680BC4B
:102A5C00704780B483B000AF786000BF0C37BD46C0
:102A6C0080BC704770B500260C4D0D4C641BA41037
:102A7C00A64209D100F022F800260A4D0A4C641B2C
:102A8C00A410A64205D170BD55F8043B98470136F9
:102A9C00EEE755F8043B98470136F2E70C2B00089B
:102AAC000C2B00080C2B0008102B000803460244CA
:102ABC00934200D1704703F8011BF9E7F8B500BF4A
:102ACC00F8BC08BC9E467047F8B500BFF8BC08BC03
:042ADC009E4670475B
:102AE0007E818181FF818181000000000000000063
:102AF0000102030406070809020304050607080982
:0C2B00000A0B0C0D0E0F1010010200005B
:042B0C00310100088B
:042B10000D010008AB
:0C2B14000024F40010000000010000008C
:040000050800146576
:00000001FF
